:1000000000800020BD010000B90E0000B50E000008
:10001000B50E0000B50E0000B50E0000B50E0000D4
:10002000B50E0000B50E0000B50E0000B90E0000C0
:10003000B90E0000B50E0000B90E0000BD0E0000A4
:10004000B90E0000B90E0000B90E0000B90E000094
:10005000B90E0000B90E0000B90E0000B90E000084
:10006000B90E0000B90E0000B90E0000B90E000074
:10007000B90E0000B90E0000B90E0000B90E000064
:10008000B90E0000B90E0000B90E0000B90E000054
:10009000B90E0000B90E0000B90E0000B90E000044
:1000A000B90E0000B90E0000B90E0000B90E000034
:1000B000B90E0000B90E0000B90E0000B90E000024
:1000C000B90E0000B90E0000B90E0000B90E000014
:1000D000B90E0000B90E0000B90E0000B90E000004
:1000E000B90E0000B90E0000B90E0000B90E0000F4
:1000F000B90E0000B90E0000B90E0000B90E0000E4
:10010000B90E0000B90E0000B90E0000B90E0000D3
:10011000B90E0000B90E0000B90E0000B90E0000C3
:10012000B90E0000B90E0000B90E0000B90E0000B3
:10013000B90E0000B90E0000B90E0000B90E0000A3
:10014000B90E0000B90E0000B90E0000B90E000093
:10015000B90E0000B90E0000B90E0000B90E000083
:10016000B90E0000B90E0000B90E0000B90E000073
:10017000B90E0000B90E0000B90E0000B90E000063
:10018000B90E0000B90E0000B90E0000B90E000053
:10019000B90E0000B90E0000B90E0000B90E000043
:1001A000B90E0000B90E0000B90E0000B90E000033
:1001B000B90E0000B90E0000B90E00006549F8B58F
:1001C0004CF220524DF62813CA81CB8100BF00BFEC
:1001D000614B624E624C634A41F2300741F238058E
:1001E00041F23C004FF0100C4FF0106EA1F800C02F
:1001F00043F807E05E511C50136913F4807303D178
:100200004FF4A85153611161574B9A78150703D5E4
:100210009A7842F008029A705449554B554A2A2060
:10022000994210700CD2CA43134423F00303524A7C
:100230000433134452F8040B41F8040B9A42F9D1E9
:100240004E4A4F4B9A420AD2D1430B4423F0030348
:1002500004331344002142F8041B9A42FBD1494B5A
:10026000494A03F5DE7053F8041F42F8041F834225
:10027000F9D1464B4649802203F8012B8B42FBD132
:100280004FF0E021434A4448C1F8080D434B8A210E
:1002900011705A7802F0C3025A705A7842F0240260
:1002A0005A701A7802F003021A701A7842F0A0020B
:1002B0001A709A799407FCD538498A79374BC2F37A
:1002C0008102022AF9D15A7942F020025A711A7930
:1002D00002F0E0021A711A7942F005021A715A7995
:1002E00002F0E0025A715A7942F043025A719A7947
:1002F0009006FCD5294A9179284B4906FBD51A78F6
:1003000002F03F021A709A792449C2F38102032A4B
:10031000F9D1114B41F2440541F248004FF081768A
:10032000052420225E511C500D460A70AB7903F063
:100330000C030C2BFAD11A4B074C1A4D1A4941F2F7
:1003400004000722255059601A6062B600F0BAFA1C
:10035000FEE700BF0020054000700440823F04001B
:100360000100002B00D0034000D007400082FF1F97
:100370000482FF1F00E00740500F00000482FF1FAF
:100380002482FF1FFCFFFFFFFC7FFF1F00E400E053
:100390005FE400E0005006400080FF1F0040064080
:1003A00010E000E0C01005003F190100FFFFFFFF53
:1003B000FFFFFFFFFFFFFFFFFFFFFFFFFFFFFFFF4D
:1003C000FFFFFFFFFFFFFFFFFFFFFFFFFFFFFFFF3D
:1003D000FFFFFFFFFFFFFFFFFFFFFFFFFFFFFFFF2D
:1003E000FFFFFFFFFFFFFFFFFFFFFFFFFFFFFFFF1D
:1003F000FFFFFFFFFFFFFFFFFFFFFFFFFFFFFFFF0D
:10040000FFFFFFFFFFFFFFFFFFFFFFFFFEFFFFFFFD
:1004100082B00190019B5A1E0192002BFAD102B0CA
:10042000704700BF2DE9F041954C88B007460E4655
:1004300020686168258994F80A80A6460DF1040CAD
:10044000ACE803005EF80C0FACF80050DEF80410C6
:100450008CF8028015461C46DEF80820DEF80C30C9
:1004600042F20E7C0DF1100E6745AEE80F0000F36E
:10047000D380844B9F4280F2D4804FF0010C40F235
:10048000E737DFF804E20C218EFB0732FB17C3EBE2
:10049000A20303EB8302A7EB420208A800FA82F250
:1004A000084412F81C2C00F8102C01311FB2C9B2FC
:1004B000002FE9D1BCF1000F40F09F8042F20E7393
:1004C0009E4200F3A4806F4B9E4280F2C7804FF0A3
:1004D000010E40F2E7366C4F082187FB0632F31716
:1004E000C3EBA20303EB8302A6EB420208A800FAC7
:1004F00082F2084412F81C2C00F8102C01311EB2B4
:10050000C9B2002EE9D1BEF1000F69D142F20E73DB
:100510009D426EDC5B4B9D4280F29A80012740F247
:10052000E735594E042186FB0532EB17C3EBA203D6
:1005300003EB8302A5EB420208A800FA82F208440A
:1005400012F81C2C00F8102C01311DB2C9B2002D7C
:10055000E9D1002F37D142F20E739C423CDC494B6B
:100560009C4265DA012640F2E734474D002185FBC5
:100570000432E317C3EBA20202EB8203A4EB4303B2
:1005800008A800FA83F3084413F81C3C00F8103C58
:10059000013114B2C9B2002CE9D126B108AB19441B
:1005A000BF2301F8103C394CA36843F00103A3605A
:1005B00004A8102100F0A6FB636843F00103636008
:1005C00008B0BDE8F08108AB1944BF2301F8103C26
:1005D00042F20E739C42C2DD002642F20F74C4E761
:1005E00008AB1944BF2301F8103C42F20E739D4240
:1005F00090DD002742F20F7593E708AB1944BF2343
:1006000001F8103C42F20E739E427FF75CAF4FF050
:10061000000E42F20F765EE74FF0000C42F20F77C9
:100620002FE7002F0ADA7A4217B24FF0010C28E7C1
:10063000002C09DA63421CB2012696E718BF4FF07E
:10064000000C7FF41EAF39E718BF00268DD1AAE752
:10065000002D0ADA6A4215B2012762E7002E09DA94
:10066000724216B24FF0010E35E718BF00277FF433
:1006700058AF70E718BF4FF0000E7FF42CAF45E77E
:100680001C0F00001AFCFFFF6766666680F00F40D3
:10069000F0B5484B87B002460C46186859681F8968
:1006A0009E7A03AD03C553F81C0F2F805968AE70B6
:1006B00042F20E7501ABAA4203C363DC3E4B9A4281
:1006C00064DA012640F2E7323C4D042085FB02311A
:1006D000D317C3EBA10303EB8301A2EB410106AAED
:1006E00002FA81F1024411F80C1C02F8141C0130CA
:1006F0001AB2C0B2002AE9D1002E36D142F20E73EE
:100700009C423BDC2C4B9C4246DA012640F2E7340B
:100710002A4D002185FB0432E317C3EBA20303EB50
:100720008302A4EB420206A800FA82F2084412F8FF
:100730000C2C00F8142C01311CB2C9B2002CE9D1E8
:1007400026B106AB1944BF2301F8143C1C4CA36826
:1007500043F00103A36001A8082100F0D3FA636805
:1007600043F00103636007B0F0BD06AB1844BF233C
:1007700000F8143C42F20E739C42C3DD002642F2A4
:100780000F74C5E7002642F20F729DE7002A09DACE
:1007900051420AB2012697E7002C07DA624214B2EE
:1007A0000126B5E718BF00268ED1A7E718BF00269F
:1007B000AED1CBE71C0F00001AFCFFFF6766666630
:1007C00080F00F40F0B5284B284D59681F899E7A5C
:1007D0001A4687B00446186803AB03C352F8240FC7
:1007E0001F8051689E70AC4201AB03C330DC204BCC
:1007F0009C4230DA1F4C01261F4D002185FB04323C
:10080000E317C3EBA20303EB8302A4EB420206A8A7
:100810000244084412F80C2C00F8142C0131C9B21F
:100820001C46002BEAD126B106AB1944BF2301F8C0
:10083000143C124CA36843F00103A36001A80821F3
:1008400000F060FA636843F00103636007B0F0BD35
:100850000B4C0026D0E7002C02DA64420126CBE7DD
:1008600018BF0026C8D1E4E71C0F0000FEE0F50524
:10087000826967FF7F9698006766666680F00F4022
:10088000FFE0F50510B50D4B0D4C53F82C0F82B061
:1008900059686B4603C3A36843F00103A36068462D
:1008A000082100F02FFA6846082100F02BFA63684F
:1008B00043F00103636002B010BD00BF1C0F0000D5
:1008C00080F00F40464A474E474DDFF828814FF4ED
:1008D000807180B551617369444F43F020037361A7
:1008E000B36843F02003B3601160736943F0010300
:1008F0007361736843F00103736000F0BDF900F0A9
:100900007BF8FFF7BFFF3A687A60B246B9463B68AA
:100910009B1A322B09D9D9F80020DAF80C30C9F823
:10092000042043F02003CAF80C30314C2F4E06F15E
:10093000080000F0BBF840F2593240F25B3E40F252
:10094000216100283FD0D9F8083093422CD073455C
:100950000ED08B42EAD1F37B03F07F031B0288FBAE
:1009600003235B08642202FB03F31B12F383DDE71E
:1009700099F80F3099F80E1099F80D20403B03EBD1
:1009800043039B1003EBC3035B0003F2451384FB9B
:10099000036002EB0122DB17C3EBA0039210A9F85E
:1009A0001C30A9F81A20C1E799F80E2099F80D30EB
:1009B00003EB022385FB03121A44DB17C3EB22234C
:1009C000A9F81830B2E7B6F91820B6F91A00B6F946
:1009D0001C10B6F91E30FFF725FD726897E700BFBF
:1009E00000B0044080F00F40C12787CB0482FF1F76
:1009F0006766666695204F09284B2948294910B437
:100A000041F23C024FF400741C635C63835843F072
:100A1000100383504B6823F400534B600B6843F082
:100A200080430B600B6823F000430B600A681D4B8A
:100A3000D202FBD41A6842F000721A601A6894015C
:100A4000FCD418490A68174BD001FBD51A6816491F
:100A500042F400321A601A6842F000521A6059607B
:100A60005A68002122F480526FF060405A60C3F847
:100A70008008196199641A6822F080521A601A6815
:100A8000D201FCD407490B68064A13F00063FAD17F
:100A9000C2F800315DF8044B704700BF009004407D
:100AA000007004400040024002007B09234A136B9F
:100AB00013F020033FD030B4D2F88040C4F3034495
:100AC0000473D2F8803013F4001FD2F884301ABFB8
:100AD00023F0604343F00043C3F38A43036024B32D
:100AE000164D0430002208E0D5F888300132CB40A2
:100AF000A242037000F1010017D002F00303DB00F3
:100B0000C3F1180112F0FC0F02F003034FEAC30314
:100B1000EAD0D5F88C10C3F11803013221FA03F39F
:100B2000A242037000F10100E7D1044B2022012012
:100B30001A6330BC70471846704700BF004002403F
:100B4000F0B585B004AC04E90F003F4900989DF86A
:100B50000C400B6A3C4A13F04803FAD1C2F800314A
:100B60000028D2F8043156DB23F0FF5323F4E013BE
:100B7000C2F80431D2F8043143EA8040C2F80401DB
:100B8000D2F8003123F40013C2F80031D2F800315A
:100B9000C2F800316CB32C4E01A80021FF250DE0F6
:100BA0000378D6F80871934027EA0C0701313B43DC
:100BB0008C42C6F8083100F101001AD001F003029E
:100BC000D200C2F1180205FA02FC11F0FC0F134624
:100BD000E646E5D00278D6F80C7102FA03F327EA6C
:100BE0000C0701313B438C42C6F80C3100F1010087
:100BF000E4D1154AD2F8003123F47023C2F8003151
:100C0000D2F8003143F0406343EA04440120C2F8C3
:100C1000004105B0F0BD03F06043C2F80431D2F8E2
:100C2000043120F000401843C2F80401D2F800312A
:100C300023F40013C2F80031D2F8003143F400135A
:100C4000C2F80031A6E700BF00400240094B1A6815
:100C500012F4804F0BD110B442F4804444F00104EC
:100C60001C60D86019615DF8044B1A607047D86049
:100C70001961704700C0024070B4154D154A164BFB
:100C8000164E41F23C044FF41070295941F4805142
:100C900029514FF400719060D16050601E601A6855
:100CA00051040DD442F480414FF0384441F0010129
:100CB0004FF078401960DC60186170BC1A607047B2
:100CC0004FF038414FF07842D9601A6170BC7047DC
:100CD0000070044000C0044000C00240000C1F80AF
:100CE000064B074A1A6040F000404FF00042DA62BB
:100CF0001A465863D36A002BFCDA704700C00240E2
:100D0000000C1F80CB0770B40FD50478274B284AFE
:100D10001A6044F000444FF00042DA6201301A4693
:100D20005C63D36A002BFCDA0139204B204A1A603D
:100D3000052900EB010537D8490831D01B4E821C2C
:100D4000002412F8020C12F8013C013443EA00239B
:100D500043F010438C421046736302F10202F0DB51
:100D6000854212D9114A1446D36A13F0F00FFBD012
:100D700010F8026B10F8013C43EA062343F01043DD
:100D800063638542A36BEFD841B1084A1046D36A2A
:100D900013F0F00FFBD00139836BF8D170BC7047B2
:100DA000A842DFD370BC70470321C7E700C00240F0
:100DB000000C1F80074B08491960084A4FF000419A
:100DC000D96219465A63CB6A024A002BFBDA906B50
:100DD000C0B2704700C00240000C1F80FF000080BE
:100DE000CB07F0B511D52F4B2F4C1C602F4A4FF07D
:100DF0000044DC621E465A63431CF26A294D002AF5
:100E0000FBDAAA6B027001391846264C264B236088
:100E100005290BD84D0841D06A00254E6663022D86
:100E2000C2F10003964609D1666307E0204A626377
:100E30004FF0060E62636FF0050362630B44C41843
:100E4000A04217D2174A1A4F15460146D36A13F02B
:100E5000F00FFBD06F63AB6BC3F3072601F8026B97
:100E60008C4201F8013CF1D8C343234423F0010331
:100E700002331844744484420FD90A4A1546D36A8F
:100E800013F0F00FFBD0AB6BC3F3072100F8021B8C
:100E9000844200F8013CF2D8F0BDF0BDAE462B46CE
:100EA000CCE700BF00C00240000C1F80FF000080A4
:100EB000FFFF0090FEE700BFFEE700BF024A136895
:100EC00001331360704700BF0482FF1F024A13689A
:100ED00018441060184670470082FF1F00207047BA
:100EE0004FF0FF30704700BF4FF400534B600020BD
:100EF000704700BF012070474FF0FF30704700BFC0
:100F0000FEE700BFFEE700BF0078B0FA80F04009BE
:100F1000704700BF01230370704700BFC0F9A4B041
:100F2000999282F88090FF00C0FFFFFFC0FFFFFF93
:100F3000C0FFFFFFC0FFFFFFC0FFFFFFC0FFFFFFBD
:100F4000C0FFFFFFFFFFFFFFFFFFFFFFFFFFFFFFF0
:040F50002482FF1FD9
:00000001FF
